:100000000C942A000C944C010C943C000C943C0081
:100010000C943C000C943C000C943C000C943C0070
:100020000C943C000C943C000C943C000C943C0060
:100030000C943C000C943C000C943C000C943C0050
:100040000C943C000C943C000C943C000C943C0040
:100050000C943C0011241FBECFE5D8E0DEBFCDBF1D
:1000600010E0A0E6B0E001C01D92A336B107E1F7B1
:100070000E948F090C94A2090C940000DF93CF9387
:100080000F92CDB7DEB781E08983A3E5B0E0E3E569
:10009000F0E0808180648C93A3E5B0E0E3E5F0E0DC
:1000A0008081877F8C93A3E5B0E0E3E5F0E0808179
:1000B0008F7D8C93A3E5B0E0E3E5F0E080818F7E57
:1000C0008C93198289810F90CF91DF910895DF93EE
:1000D000CF9300D000D00F92CDB7DEB79D838C8335
:1000E00081E08B838C819D8121E08730920718F01D
:1000F00081E08B8359C01A821982ECE5F0E08DE72C
:100100008083A3E5B0E0E3E5F0E0808184608C9338
:10011000A3E5B0E0E3E5F0E080818D7F8C93A3E57B
:10012000B0E0E3E5F0E080818E7F8C9316C0E8E5D7
:10013000F0E080818695882F90E081709070009724
:10014000B1F3A8E5B0E0E8E5F0E0808182608C934F
:1001500089819A8101969A8389832C813D818DE7DB
:1001600090E0A901489F9001499F300D589F300DA4
:10017000112489819A8128173907C9F62C813D817C
:100180008DE790E0A901489F9001499F300D589F4D
:10019000300D112489819A812817390719F482E0DA
:1001A0008B8302C083E08B838B810F900F900F9025
:1001B0000F900F90CF91DF910895DF93CF930F921F
:1001C000CDB7DEB781E08983AFE5B0E0EFE5F0E0E1
:1001D000808180688C93198289810F90CF91DF9103
:1001E0000895DF93CF930F92CDB7DEB781E0898377
:1001F000AFE5B0E0EFE5F0E080818F778C93198276
:1002000089810F90CF91DF910895DF93CF930F9263
:10021000CDB7DEB781E08983A5E5B0E0E5E5F0E0A4
:10022000808182608C93A5E5B0E0E5E5F0E0808117
:1002300081608C93198289810F90CF91DF9108950D
:10024000DF93CF930F92CDB7DEB781E089830E9411
:10025000DD00ABE5B0E0EBE5F0E0808180648C93FD
:10026000198289810F90CF91DF910895DF93CF9309
:100270000F92CDB7DEB781E089830E94F100ABE534
:10028000B0E0EBE5F0E080818F7B8C93198289816F
:100290000F90CF91DF9108951F920F920FB60F929A
:1002A00011242F933F934F935F936F937F938F937B
:1002B0009F93AF93BF93EF93FF93DF93CF93CDB70C
:1002C000DEB7E0916000F09161000995CF91DF9178
:1002D000FF91EF91BF91AF919F918F917F916F911E
:1002E0005F914F913F912F910F900FBE0F901F90F4
:1002F0001895DF93CF9300D00F92CDB7DEB79B83D5
:100300008A8381E089838A819B81909361008093B5
:100310006000198289810F900F900F90CF91DF912B
:100320000895DF93CF9300D000D000D0CDB7DEB7D3
:100330008A836B834C8381E089838A81282F30E014
:100340003E832D838D819E818130910509F44BC0C0
:100350002D813E81223031052CF48D819E810097C4
:1003600071F0DCC02D813E812230310509F46FC06F
:100370008D819E818330910509F49DC0CFC08C8111
:100380008823B1F4AAE3B0E0EAE3F0E08081482FEB
:100390008B81282F30E081E090E0022E02C0880F90
:1003A000991F0A94E2F7809584238C931982B6C032
:1003B0008C818130A9F4AAE3B0E0EAE3F0E0808127
:1003C000482F8B81282F30E081E090E0022E02C080
:1003D000880F991F0A94E2F7842B8C9319829EC090
:1003E00081E089839BC08C818823B1F4A7E3B0E0CE
:1003F000E7E3F0E08081482F8B81282F30E081E017
:1004000090E0022E02C0880F991F0A94E2F78095AF
:1004100084238C93198282C08C818130A9F4A7E354
:10042000B0E0E7E3F0E08081482F8B81282F30E0B7
:1004300081E090E0022E02C0880F991F0A94E2F733
:10044000842B8C9319826AC081E0898367C08C8178
:100450008823B1F4A4E3B0E0E4E3F0E08081482F26
:100460008B81282F30E081E090E0022E02C0880FBF
:10047000991F0A94E2F7809584238C9319824EC0C9
:100480008C818130A9F4A4E3B0E0E4E3F0E0808162
:10049000482F8B81282F30E081E090E0022E02C0AF
:1004A000880F991F0A94E2F7842B8C93198236C027
:1004B00081E0898333C08C818823B1F4A1E3B0E06B
:1004C000E1E3F0E08081482F8B81282F30E081E04C
:1004D00090E0022E02C0880F991F0A94E2F78095DF
:1004E00084238C9319821AC08C818130A9F4A1E3F2
:1004F000B0E0E1E3F0E08081482F8B81282F30E0ED
:1005000081E090E0022E02C0880F991F0A94E2F762
:10051000842B8C93198202C081E08983898126967D
:100520000FB6F894DEBF0FBECDBFCF91DF91089517
:10053000DF93CF9300D000D00F92CDB7DEB78A8380
:100540006B8381E089838A81282F30E03D832C836F
:100550008C819D8181309105D9F02C813D812230A3
:1005600031052CF48C819D81009761F022C02C8193
:100570003D812230310591F08C819D818330910540
:1005800099F017C0EAE3F0E08B818083198211C0F3
:10059000E7E3F0E08B81808319820BC0E4E3F0E0B5
:1005A0008B818083198205C0E1E3F0E08B81808339
:1005B000198289810F900F900F900F900F90CF911B
:1005C000DF910895DF93CF9300D000D000D0CDB756
:1005D000DEB78A836B834C8381E089838A81282FED
:1005E00030E03E832D838D819E818130910509F419
:1005F0004BC02D813E81223031052CF48D819E81AE
:10060000009771F0DCC02D813E812230310509F464
:100610006FC08D819E818330910509F49DC0CFC04C
:100620008C818823B1F4ABE3B0E0EBE3F0E08081B0
:10063000482F8B81282F30E081E090E0022E02C00D
:10064000880F991F0A94E2F7809584238C9319826E
:10065000B6C08C818130A9F4ABE3B0E0EBE3F0E00D
:100660008081482F8B81282F30E081E090E0022E9E
:1006700002C0880F991F0A94E2F7842B8C93198289
:100680009EC081E089839BC08C818823B1F4A8E35C
:10069000B0E0E8E3F0E08081482F8B81282F30E044
:1006A00081E090E0022E02C0880F991F0A94E2F7C1
:1006B000809584238C93198282C08C818130A9F427
:1006C000A8E3B0E0E8E3F0E08081482F8B81282F99
:1006D00030E081E090E0022E02C0880F991F0A945A
:1006E000E2F7842B8C9319826AC081E0898367C00A
:1006F0008C818823B1F4A5E3B0E0E5E3F0E08081EC
:10070000482F8B81282F30E081E090E0022E02C03C
:10071000880F991F0A94E2F7809584238C9319829D
:100720004EC08C818130A9F4A5E3B0E0E5E3F0E0B0
:100730008081482F8B81282F30E081E090E0022ECD
:1007400002C0880F991F0A94E2F7842B8C931982B8
:1007500036C081E0898333C08C818823B1F4A2E361
:10076000B0E0E2E3F0E08081482F8B81282F30E079
:1007700081E090E0022E02C0880F991F0A94E2F7F0
:10078000809584238C9319821AC08C818130A9F4BE
:10079000A2E3B0E0E2E3F0E08081482F8B81282FD4
:1007A00030E081E090E0022E02C0880F991F0A9489
:1007B000E2F7842B8C93198202C081E089838981BE
:1007C00026960FB6F894DEBF0FBECDBFCF91DF9156
:1007D0000895DF93CF9300D000D00F92CDB7DEB74E
:1007E0008A836B8381E089838A81282F30E03D836F
:1007F0002C838C819D8181309105D9F02C813D81A4
:10080000223031052CF48C819D81009761F022C04B
:100810002C813D812230310591F08C819D81833086
:10082000910599F017C0EBE3F0E08B81808319828A
:1008300011C0E8E3F0E08B81808319820BC0E5E30F
:10084000F0E08B818083198205C0E2E3F0E08B81C8
:100850008083198289810F900F900F900F900F90D5
:10086000CF91DF910895DF93CF9300D000D00F9206
:10087000CDB7DEB78A836B8381E089838A81282F95
:1008800030E03D832C838C819D818130910559F12D
:100890002C813D81223031052CF48C819D81009783
:1008A00069F05FC02C813D812230310589F18C8156
:1008B0009D818330910509F440C053C0ABE3B0E0A3
:1008C000EBE3F0E08081482F8B81282F30E081E03E
:1008D00090E0022E02C0880F991F0A94E2F7842745
:1008E0008C9319823EC0A8E3B0E0E8E3F0E0808199
:1008F000482F8B81282F30E081E090E0022E02C04B
:10090000880F991F0A94E2F784278C93198229C0D3
:10091000A5E3B0E0E5E3F0E08081482F8B81282F4C
:1009200030E081E090E0022E02C0880F991F0A9407
:10093000E2F784278C93198214C0A2E3B0E0E2E3CB
:10094000F0E08081482F8B81282F30E081E090E01B
:10095000022E02C0880F991F0A94E2F784278C9315
:10096000198289810F900F900F900F900F90CF9167
:10097000DF910895DF93CF9300D000D000D0CDB7A2
:10098000DEB78B836C8381E089838B81282F30E0F5
:100990003E832D834D815E8141305105C1F18D81B2
:1009A0009E818230910534F42D813E8121153105DF
:1009B00071F08CC04D815E814230510509F447C011
:1009C0008D819E818330910509F461C07FC0E9E388
:1009D000F0E08081282F30E08C81882F90E0A90101
:1009E00002C0559547958A95E2F7CA0181708A83BE
:1009F0008A81813019F482E0898368C08A818823E2
:100A000019F483E0898362C081E089835FC0E6E3F3
:100A1000F0E08081282F30E08C81882F90E0A901C0
:100A200002C0559547958A95E2F7CA0181708A837D
:100A30008A81813019F482E0898348C08A818823C1
:100A400019F483E0898342C081E089833FC0E3E3F6
:100A5000F0E08081282F30E08C81882F90E0A90180
:100A600002C0559547958A95E2F7CA0181708A833D
:100A70008A81813019F482E0898328C08A818823A1
:100A800019F483E0898322C081E089831FC0E0E3F9
:100A9000F0E08081282F30E08C81882F90E0A90140
:100AA00002C0559547958A95E2F7CA0181708A83FD
:100AB0008A81813019F482E0898308C08A81882381
:100AC00019F483E0898302C081E0898389812696B5
:100AD0000FB6F894DEBF0FBECDBFCF91DF91089562
:100AE000DF93CF9300D000D0CDB7DEB78A838A8161
:100AF000282F30E03C832B838B819C8181309105B2
:100B0000D1F02B813C81223031052CF48B819C81EA
:100B1000009761F01EC02B813C812230310581F0AD
:100B20008B819C818330910581F013C0E9E3F0E073
:100B3000808189830EC0E6E3F0E08081898309C06B
:100B4000E3E3F0E08081898304C0E0E3F0E08081AA
:100B5000898389810F900F900F900F90CF91DF9133
:100B60000895DF93CF9300D00F92CDB7DEB78A837D
:100B70006B8381E089838A816B8141E00E949101CE
:100B8000882311F4198202C081E0898389810F9042
:100B90000F900F90CF91DF910895DF93CF9300D006
:100BA0000F92CDB7DEB78A836B8381E089838A8118
:100BB0006B8141E00E94E202882311F4198202C095
:100BC00081E0898389810F900F900F90CF91DF9101
:100BD0000895DF93CF9300D00F92CDB7DEB78A830D
:100BE0006B8381E089838A816B8140E00E94E2020D
:100BF000882311F4198202C081E0898389810F90D2
:100C00000F900F90CF91DF910895DF93CF9300D095
:100C10000F92CDB7DEB78A836B8381E089838A81A7
:100C20006B810E943304882311F4198202C081E091
:100C3000898389810F900F900F90CF91DF91089554
:100C4000DF93CF9300D00F92CDB7DEB78A836B834B
:100C500081E089838A816B8140E00E949101882331
:100C600061F48A816B8141E00E94E202882311F4E1
:100C7000198205C081E0898302C081E0898389816E
:100C80000F900F900F90CF91DF910895DF93CF9346
:100C90000F92CDB7DEB781E0898385E597E00E94AA
:100CA0007901882309F059C00E940501882309F0C1
:100CB00051C00E942001882309F049C00E943E00D3
:100CC000882309F041C083E062E00E942006882367
:100CD000C1F580E060E00E94B105882379F580E0ED
:100CE00061E00E94B105882331F580E062E00E9456
:100CF000B1058823E9F481E060E00E94B105882312
:100D0000A1F481E061E00E94B105882359F481E0FB
:100D100062E00E94B105882311F4198220C081E0AD
:100D200089831DC081E089831AC081E0898317C04F
:100D300081E0898314C081E0898311C081E08983C7
:100D40000EC081E089830BC081E0898308C081E007
:100D5000898305C081E0898302C081E0898389811C
:100D60000F90CF91DF910895DF93CF9300D0CDB74F
:100D7000DEB7809162008823F9F481E061E00E948F
:100D8000E90581E060E00E94E90581E062E00E94FF
:100D9000CD0580E061E00E94E90580E062E00E940C
:100DA000E90580E060E00E94CD0584E08093620068
:100DB00085E090E00E94670080916200843079F4C1
:100DC00080E060E00E94E90580E062E00E94E905C1
:100DD00080E061E00E94CD0582E080936200809116
:100DE0006200813079F480E060E00E94E90580E0F3
:100DF00062E00E94E90580E061E00E94CD0583E0A9
:100E00008093620080916200823019F51A820BC0D3
:100E100080E061E00E94050681E090E00E946700AA
:100E20008A818F5F8A838A81853090F380E060E0D9
:100E30000E94E90580E061E00E94E90580E062E04F
:100E40000E94CD0581E08093620085E090E00E94E1
:100E5000670080916200833019F519820BC080E031
:100E600061E00E94050681E090E00E9467008981B0
:100E70008F5F89838981853090F380E062E00E94F2
:100E8000E90580E061E00E94E90580E060E00E9401
:100E9000CD0584E08093620085E090E00E946700C9
:100EA0000F900F90CF91DF910895DF93CF93CDB73F
:100EB000DEB727970FB6F894DEBF0FBECDBF809187
:100EC0006200813009F052C080E062E00E94CD05EE
:100ED00081E08093620081E062E00E94E90581E0A8
:100EE00060E00E94CD0585E090E00E94670080E010
:100EF00062E00E94E90580E061E00E94CD0583E0A8
:100F00008093620081E061E00E94CD051F820FC0E6
:100F100080E061E00E94050681E061E00E94050634
:100F200081E090E00E9467008F818F5F8F838F81C7
:100F3000853070F381E060E00E94E90581E061E0C6
:100F40000E94E90581E062E00E94CD0580E062E058
:100F50000E94E90580E061E00E94E90580E060E030
:100F60000E94CD0584E080936200B5C1809162004B
:100F7000843009F08DC081E060E00E94E90581E0E5
:100F800061E00E94E90581E062E00E94CD0580E019
:100F900060E00E94E90580E062E00E94E90580E0EF
:100FA00061E00E94CD0582E08093620081E061E013
:100FB0000E94CD051E820FC080E061E00E94050600
:100FC00081E061E00E94050681E090E00E946700F8
:100FD0008E818F5F8E838E81853070F380E061E03B
:100FE0000E94E90580E060E00E94E90580E062E09F
:100FF0000E94CD0581E08093620081E062E00E9462
:10100000E90581E061E00E94E90581E060E00E947D
:10101000CD0585E090E00E94670080E061E00E94DD
:10102000CD0583E08093620081E061E00E94CD0500
:101030001D820FC080E061E00E94050681E061E052
:101040000E94050681E090E00E9467008D818F5F1D
:101050008D838D81853070F381E060E00E94E90529
:1010600081E061E00E94E90581E062E00E94CD0537
:1010700080E062E00E94E90580E061E00E94E9050D
:1010800080E060E00E94CD0584E08093620023C18F
:1010900080916200823009F095C081E060E00E949A
:1010A000E90581E061E00E94E90581E062E00E94DB
:1010B000CD0580E060E00E94E90580E062E00E94EA
:1010C000E90580E061E00E94CD0582E08093620046
:1010D00081E061E00E94CD051C820FC080E061E0EC
:1010E0000E94050681E061E00E94050681E090E033
:1010F0000E9467008C818F5F8C838C81853070F3B8
:1011000080E061E00E94E90580E060E00E94E9057E
:1011100080E062E00E94CD0581E08093620081E082
:1011200062E00E94E90581E061E00E94E90581E05A
:1011300060E00E94CD0585E090E00E94670080E0BD
:1011400061E00E94CD0583E08093620081E061E070
:101150000E94CD051B820FC080E061E00E94050661
:1011600081E061E00E94050681E090E00E94670056
:101170008B818F5F8B838B81853070F381E060E0A2
:101180000E94E90581E061E00E94E90581E062E0FA
:101190000E94CD0580E062E00E94E90580E061E008
:1011A0000E94E90580E060E00E94CD0584E0809324
:1011B000620085E090E00E94670080E060E00E94AD
:1011C000E90589C080916200833009F084C081E024
:1011D00060E00E94E90581E061E00E94E90581E0AC
:1011E00062E00E94CD0580E060E00E94E90580E0B9
:1011F00062E00E94E90580E061E00E94CD0582E0A6
:101200008093620081E061E00E94CD051A820FC0E8
:1012100080E061E00E94050681E061E00E94050631
:1012200081E090E00E9467008A818F5F8A838A81D3
:10123000853070F380E061E00E94E90580E060E0C5
:101240000E94E90580E062E00E94CD0581E0809384
:10125000620081E062E00E94E90581E061E00E94B5
:10126000E90581E060E00E94CD0585E090E00E9404
:10127000670080E061E00E94CD0583E0809362001A
:1012800081E061E00E94CD0519820FC080E061E03D
:101290000E94050681E061E00E94050681E090E081
:1012A0000E94670089818F5F89838981853070F30F
:1012B00081E060E00E94E90581E061E00E94E905CB
:1012C00081E062E00E94CD0580E062E00E94E905D5
:1012D00084E08093620027960FB6F894DEBF0FBEBD
:1012E000CDBFCF91DF910895DF93CF930F92CDB70C
:1012F000DEB781E0898381E062E00E94CD0581E074
:1013000060E00E94E90581E061E00E94E9050E9439
:10131000B406198289810F90CF91DF910895DF93F0
:10132000CF930F92CDB7DEB70E944606882311F403
:10133000198202C081E0898389818823E9F70E94AC
:081340007409FACFF894FFCF05
:00000001FF
